:10000000402100208D430000C7990000C943000033
:10001000C9430000C9430000C9430000C9430000B0
:10002000000000000000000000000000554100003A
:10003000C94300000000000009410000B199000020
:100040004D4300004D4300004D4300004D43000070
:100050004D4300004D4300004D4300004D43000060
:100060004D4300004D4300004D4300004D43000050
:100070004D4300004D4300004D4300004D43000040
:100080004D4300004D4300004D4300004D43000030
:100090004D4300004D4300004D4300004D43000020
:1000A0004D4300004D4300004D4300004D43000010
:1000B0004D4300004D4300004D4300004D43000000
:1000C0004D4300004D4300004D4300004D430000F0
:1000D0004D4300004D4300004D4300004D430000E0
:1000E0004D4300004D4300004D4300004D430000D0
:1000F0004D4300004D4300004D4300004D430000C0
:100100004D4300004D4300004D4300004D430000AF
:100110004D4300004D4300004D4300004D4300009F
:100120004D4300004D4300004D4300004D4300008F
:100130004D4300004D4300004D4300004D4300007F
:040140004D4300002B
:04014400FFFFFFFFBB
:100148007BB972B90029BEBF00204FF0004106E01C
:1001580008BF00281CBF6FF000414FF0FF3000F0CF
:10016800BBB9ADF1080C6DE904CE002909DB002B01
:100178001ADB00F04DF8DDF804E0DDE9022304B0F5
:100188007047404261EB4101002B1BDB00F040F857
:10019800DDF804E0DDE9022304B0404261EB4101EF
:1001A800524263EB43037047524263EB430300F050
:1001B8002FF8DDF804E0DDE9022304B0404261EBEA
:1001C80041017047524263EB430300F021F8DDF828
:1001D80004E0DDE9022304B0524263EB43037047B5
:1001E80053B94AB9002908BF00281CBF4FF0FF3196
:1001F8004FF0FF3000F070B9ADF1080C6DE904CE96
:1002080000F006F8DDF804E0DDE9022304B07047E9
:100218002DE9F047089E0D4604468A46002B7FD1FB
:100228008A42174641D9B2FA82F24AB1C2F1200194
:1002380005FA02F39740944020FA01F141EA030AD3
:100248004FEA17484FEA144C1FFA87F9BAFBF8FE31
:1002580008FB1EA30EFB09F14CEA0343994206D999
:10026800FB1802D2994200F224810EF1FF3E591A7E
:10027800A3B2B1FBF8F008FB101100FB09F943EA3F
:100288000144A14505D93C1902D2A14500F20E81CD
:100298000138A4EB090440EA0E4000211EB1D44005
:1002A8000023C6E90043BDE8F08702B9FFDEB2FAD1
:1002B80082F2002A4FD1CB1B4FEA174E1FFA87F85C
:1002C8000121250CB3FBFEFC0EFB1C302B4608FB62
:1002D8000CF945EA0045A9450AD97D192CBF012327
:1002E8000023A94502D9002B00F0D9800CF1FF3C6E
:1002F800A5EB0905A3B2B5FBFEF00EFB105508FBF4
:1003080000F843EA0544A04505D93C1902D2A045A6
:1003180000F2C9800138A4EB080440EA0C40BDE7AC
:100328008B4208D9002E00F0B1800021C6E90005F3
:100338000846BDE8F087B3FA83F1002946D1AB42FD
:10034800C0F0A780824240F2A4800846002EAAD0BE
:10035800C6E9004AA7E7C2F12000974001FA02F374
:100368004FEA174EC14024FA00F51FFA87F8944067
:100378001D43B1FBFEF02B0C0EFB101100FB08FC1B
:1003880043EA01439C4509D9FB182CBF01210021F0
:100398009C4502D9002900F095800138A3EB0C0395
:1003A800ADB2B3FBFEF10EFB113301FB08FC45EACD
:1003B8000345AC4505D97D1902D2AC4500F28980C8
:1003C8000139A5EB0C0341EA00417AE7C1F12004A9
:1003D8008B4002FA01F705FA01FCE24020FA04F822
:1003E800E54000FA01FE134348EA0C024FEA1348BD
:1003F8004FEA124C1FFA83F9B5FBF8FA08FB1A55B5
:100408000AFB09F04CEA054C60450AD913EB0C0CC1
:100418002CBF01250025604501D9002D55D00AF1D2
:10042800FF3AACEB000C92B2BCFBF8F008FB10CC26
:1004380000FB09F942EA0C4CE14505D913EB0C0C19
:1004480001D2E1453BD8013840EA0A40ACEB090C3F
:10045800A0FB0789CC4545464A4602D306D1C64586
:1004680004D20138B8EB070569EB03022EB3BEEBE3
:1004780005036CEB020C23FA01F20CFA04F42CFAD3
:1004880001F300211443C6E900430CE73146304626
:1004980009E7841A65EB030301209A4656E7ACF195
:1004A800020C3D4424E702383C4434E702383C441B
:1004B800EFE6AEF1020E3B44D9E63146F3E60238E8
:1004C8009C44C1E702383B4468E7AAF1020A9C440D
:1004D800A7E702393D4474E7704700BF00000000F9
:1004E800012870B50E4606D005F014FF16230360E8
:1004F8004FF0FF3070BD09F0A1FF1B4B34680A466E
:10050800A4FB0345716803FB0155B368E41845EB88
:10051800E3754FF47A73A0FB030103FB0211C20BCE
:1005280042EA4142C80B1149A2FB012301FB0033F7
:10053800A61A65EB0305304609A3D3E9002329462B
:10054800FFF7FEFD06A3D3E90023094CC4E9000127
:1005580030462946FFF7F4FD0020A260CAE700BF35
:1005680000CA9A3B0000000000CA9A3B40420F00B4
:10057800E802002008B50A4B1B6803F00703022BAA
:1005880009D90849084B0948C91AC908890141F01D
:10059800030107F017FFBDE8084000F095B900BF58
:1005A8009401002074A9000074A9000030B4000070
:1005B80008B50021024A08F09AFA002008BD00BFD9
:1005C8003FB400002DE9F3410B460D4617460021C4
:1005D8000B4A0646002408F08AFADFF82880AC4265
:1005E80003D1002002B0BDE8F08157F8243042461C
:1005F800009300212346304608F079FA0134EEE7EB
:1006080045B4000050B4000008B50021024B034A6D
:1006180008F06DFA002008BD61B400006BB400005A
:100628002DE9F8430B460D46174600210E4A0646AB
:10063800002408F05CFADFF83490AC4202D10020C4
:10064800BDE8F88323464A460021304608F04FFAB1
:1006580057F824800134404609F0A3FA414602467F
:10066800304602F085FDE8E745B400007EB400009E
:10067800F0B51446002785B005460A22606803A92C
:10068800039709F0CDF90328064608D9134A2846E6
:10069800394608F02CFA4FF0FF3005B0F0BDA168DC
:1006A8000F4809F085FA58B1A1680E4809F080FA98
:1006B80030B161680C4809F07BFA08B10B4AE6E7EB
:1006C80000212846A3680A4A009608F010FA28462E
:1006D8000021084A08F00BFA0020DEE788B4000081
:1006E800A9B40000ADB4000018B70000B1B4000010
:1006F800D1B4000002B50000134637B50024054602
:100708000A22586801A9019409F08AF90F280346BA
:1007180008D928462146074A08F0E9F94FF0FF3082
:1007280003B030BD28462146034A08F0E0F92046C8
:10073800F6E700BF06B5000028B5000073B505460A
:1007480051681348164609F033FA044638B9014689
:10075800104A284608F0CBF9204602B070BD0024A4
:100768000A22706801A9019409F05AF9072803467A
:1007780007D921462846084A08F0B9F94FF0FF344E
:10078800EAE721462846054A08F0B1F9E4E700BF40
:10079800A9B400004BB5000006B5000072B5000012
:1007A800F0B51446002785B005460A22606803A9FB
:1007B800039709F035F90728064608D90E4A28464E
:1007C800394608F094F94FF0FF3005B0F0BDA16844
:1007D8000A4809F0EDF930B16168094809F0E8F90B
:1007E80008B1084AEBE728460021A368064A0096A4
:1007F80008F07DF90020E8E706B50000A9B400007C
:1008080018B70000B1B4000099B5000010B504464F
:10081800044809F021FE20460021034A08F067F940
:10082800002010BDC8010020C9B5000013B541F66D
:100838009A12044600230648CDE9002306F00EFF6D
:1008480020460021034A08F052F9002002B010BDEA
:10085800C8010020DBB5000013B54FF4A4720446AC
:1008680000230648CDE9002306F0F8FE20460021C3
:10087800034A08F03CF9002002B010BDC80100206E
:10088800DBB50000134637B5002405460A22586830
:1008980001A9019409F0C4F80728034608D9284695
:1008A8002146074A08F023F94FF0FF3003B030BD66
:1008B80028462146034A08F01AF92046F6E700BF01
:1008C80006B50000EEB5000010B5174C236803F01C
:1008D8000703022B09D91549154B1648C91AC90827
:1008E800890141F0030107F06DFD236813F0060F3D
:1008F80009D00E490E4B1048C91AC908890141F0A0
:10090800020107F05FFD23685B070BD0BDE81040CC
:100918000649074B0948C91AC908890141F001016C
:1009280007F050BD10BD00BF980100207CA9000051
:1009380074A900002EB800003BB800004BB80000B6
:10094800084B1B7883420AD9074B00EB4010184428
:100958000023C1E90233054B08604B607047002350
:100968000B60704790110020FC0E002060B800005A
:100978002DE9F341124D06462A7842B90421114A5D
:1009880008F0B5F86FF0070002B0BDE8F08100216B
:100998000D4A08F0ACF800240C4FDFF834802978B1
:1009A800E3B2994201D80020EEE703EB4311394442
:1009B800009142460021304608F099F80134EEE7EC
:1009C800901100207BB800009CB80000FC0E0020AD
:1009D800B3B800002DE9F743064615460027DFF8AF
:1009E8005880DFF8589098F80020FBB29A4269685E
:1009F80009D80091304602212B680D4A08F077F893
:100A08006FF007040FE003EB431309EB030009F051
:100A1800CFF8013704460028E5D101466B68304617
:100A2800044A08F064F8204603B0BDE8F08300BF2C
:100A3800D2B80000BDB8000090110020FC0E0020C4
:100A48002DE9F74FDFF88CA0934606460022D046E2
:100A5800DFF884909AF80010D4B2A142DBF8043091
:100A680007D802213046194A08F041F86FF0070507
:100A78001AE004EB44174F4419463846019209F02E
:100A880097F8019A054601320028E3D1132C0FD1BB
:100A980089F8730298F800300021013B30460C4A6F
:100AA80088F8003008F023F8284603B0BDE8F08F36
:100AB8009AF800203846121B013404EB441402EB68
:100AC800421209EB040109F09EF8E3E70AB90000B5
:100AD800ECB8000090110020FC0E00202DE9F8432E
:100AE800294D04462B781646132B07D90221274A8D
:100AF80007F0FDFF6FF00700BDE8F883506809F0C4
:100B080050F880B220280FD8002377689AB2904214
:100B18000ED81F4F4FF00008B9463846716809F0E3
:100B280047F890B91B4A00E01B4A02212046DFE73C
:100B3800FA5C42F020016139192904D9303A092AAE
:100B480001D9164AF1E70133E0E708F10108B8F1E5
:100B5800140F07F12107E0D128787268431C00EBD5
:100B680040100F4948442B7004F02EFE21220D4BF3
:100B78002978074807F00EF8204600210A4A07F0AE
:100B8800B6FF0020B8E700BF9011002024B900008C
:100B9800FC0E00208BB900003BB900004DB90000E5
:100BA8003EC10000437B00009FB900002DE9F04FD3
:100BB80085B00E9C9B46012CB8BF0124012B0CBFAD
:100BC80030232023154606468A4601274FF00A0897
:100BD8000022DFF870900293B5FBF9F301930AB98C
:100BE800A9451ED8019B514603F13000B0470122A8
:100BF8000137019B08F1FF3809FB13550A23B8F1A7
:100C0800010FB9FBF3F9E7D1514605F13000B047C0
:100C1800BBF1030F02D1E41B002C0EDC05B0BDE8CC
:100C2800F08F4445E5DBBBF1020FE2D8514602984C
:100C380003920137B047039ADBE751462020B047BB
:100C4800013CE9E700CA9A3B014B1860704700BFB6
:100C5800000000202DE9F04F002705468B464FF095
:100C6800FF39B8461C468DB0531E0393002605E095
:100C78006EB9252800F071815946A847039B13F8DF
:100C8800010F03930028F3D10DB0BDE8F08F7A2847
:100C98000AD8622810D8302854D045D8252800F022
:100CA8005A812D2800F05F8159462520A8475946CA
:100CB800039B1878A847D9E7A0F16303172BF3D84B
:100CC80001A252F823F000BF570F00009B0D00004F
:100CD800B10C0000B10C0000B10C00007D0D00004B
:100CE8009B0D0000B10C0000B10C00007D0D000050
:100CF800B10C0000B10C0000B10C00003D0E00006A
:100D0800B10C0000B10C0000270F0000B10C00006E
:100D18000B0E0000B10C0000B10C0000390D0000F2
:100D2800B10C00007D0D000039281AD95828BBD114
:100D3800039B1B78702B40F0888054F8043B0022FA
:100D4800069390E0B9F1000F0EDAB8F1000F00F049
:100D58000D81A0F13009B8F1000F08BF4FF002086B
:100D68008CE7B9F1000FF4DB0A2303FB0909A9F1A9
:100D78003009F0E7682803D1682F06D148277DE7B6
:100D88006C2802D16C2F00F0F480002F8CD107461C
:100D980074E77A2F02D154F8046B21E06C2FFAD053
:100DA8004C2FF8D1073424F00704F4E80223CDE9E6
:100DB8000423049B4FF0FF3013F10041059B089179
:100DC80043F1000109910021DDE90823994208BF98
:100DD800904204D25946284607F00DF946E7049E8A
:100DE800002E05DA59462D20A847764209F1FF3929
:100DF80043463246CDF8009059462846FFF7D6FEBE
:100E080034E77A2F02D154F8042B0FE06C2FFAD074
:100E18004C2FF8D100214FF0FF30073424F007049D
:100E2800F4E80223994208BF9042D3D34346CDF851
:100E38000090E1E759463020A84759467820A8474E
:100E48004FF008094FF0010872E76C2F3FF475AFB7
:100E58004C2F7FF472AFE31D23F007031C4654F8B0
:100E6800082B06925A68002110234FF0400A04917B
:100E78000791AAF1040A0699CAF1200EAAF1200CDA
:100E880021FA0AF002FA0EFE40EA0E0022FA0CFCE1
:100E980040EA0C0010F00F0007D1079911B9BAF118
:100EA800000F25D14FF0300C05E009288CBF4FF01A
:100EB800570C4FF0300C6044594640B20A920793E1
:100EC800A847049B0A9A01330493079BBAF1000FC1
:100ED80023D1B8F1030F7FF4C9AE049BC3EB4906D5
:100EE800002E7FF7C3AE59462020A847013EF7E7FA
:100EF800591E99450A9107DBB8F1010F06D15946E9
:100F080030200B92A8470B9A0A9BB2E7B8F1020F60
:100F1800FAD1594620200B92F4E70796A9E754F82E
:100F2800046BB24653461AF8010B68B9B8F1030FBF
:100F380021D19E1BA9EB0606002E7FF797AE5946D6
:100F48002020A847013EF7E75946A847EAE759464F
:100F580054F8040BAEE65946ACE63746B0464FF0B7
:100F6800FF3901268AE64FF0030887E64FF00108AB
:100F780084E64C2782E6064680E600BF30B50025A9
:100F880085B0CDE90101044601A905480395FFF79D
:100F980061FEDDE902309842B8BF255405B030BD86
:100FA8001B8000002DE9F74F0369C46803F10109AC
:100FB800631E40F26C740025019343698046E4186F
:100FC80045EBE375B9F1020F8CBF00230123E41A46
:100FD80065F10005002C75F1000357DA6FF4C7704E
:100FE8004FF4C8720023201845F1FF31FFF7A8F825
:100FF800294B4FF03C0C03FB0044D8E900539A46B8
:10100800B9F1020F8CBF6FF0020E4FF0090E4FEAD4
:10101800E37BD8F80830F144CCFB03ABAAFB0C23E4
:101028000CFB0B33521943EBE57340F26D154FF08F
:10103800990E4FEA940C05FB04CC019D0EFB09FEAA
:1010480065444FF0640C4FF00509B4FBFCF40EF155
:10105800020EBEFBF9FEDFF84CC02C1BA644A0FB19
:101068000C450CFB01550D4966180D4945F1FF3734
:1010780016EB0E06A6FB014547F1000701FB0755D5
:10108800A01845EB030103B0BDE8F08F4FF4C87218
:10109800002320462946A9E770FEFFFF9405F5FFC7
:1010A80080510100B13A02004FF02002EFF31183A2
:1010B80082F31188BFF36F8F0121044AC2F84015EB
:1010C80083F31188BFF36F8F00207047009003509F
:1010D80020B1034B800143F001031847704700BF5C
:1010E800D0AA000030B5002289B00F490F4809F096
:1010F800A7F9002200230024CDE906230E230C4D76
:10110800CDE903344FF440722846CDE90144094B38
:101118000949009406F0C8F80849284606F02CF852
:10112800204609B030BD00BF49110000B8020020B8
:1011380030030020A516000040120020BFBE0000AA
:10114800014805F091BF00BF1402002038B500F037
:1011580003FB134807F0EEF812490423282212482B
:1011680008F0B7FF114B124A4FF400401A6000F024
:1011780039FD00210F48104B104C1B1ADB080430B6
:10118800994200D138BD10F83120256802F00702D5
:1011980025F007052A4344F8042B0131F0E700BF86
:1011A8000C030020802A00201403002004000020E3
:1011B8007B83000074A90000D4A9000094010020DA
:1011C800F8B500250C4BD3E8EF7FC3E8E25F002AAF
:1011D800F9D10A4C0A4E361B3611B54200DBF8BD70
:1011E80063685B792BB12368DB6813B13946204605
:1011F800984701351034F0E704030020D4A9000013
:10120800E4A90000044BD3E8EF2F0132C3E8E12F33
:101218000029F8D1704700BF04030020044A054B99
:101228009B1AB1EBD30F34BF52F83100002070473E
:1012380074A90000D4A900002DE9F0478946164694
:1012480098460446B0B9214B05469A46204FFF1AE6
:101258003F11BC4202DB2846BDE8F0870AEB0410C8
:10126800434632464946FFF7E7FF854238BF054601
:101278000134EEE7174B184903EBC2031D794368A5
:1012880045451A794FF0070328BF454602EB42024D
:1012980003FA02F051F8263023EA000305F00700AC
:1012A80000FA02F213430020032223FA02F404F0A6
:1012B8000704A04202F1030238BF20461E2AF4D1D7
:1012C80023F00703034341F82630C4E7D4A90000FC
:1012D800E4A9000074A9000094010020F8B50646AE
:1012E8000F460025074C084BE41AE408A54200D134
:1012F800F8BD00212A463B463046FFF79DFF0135E1
:10130800F4E700BFD4A9000074A900000C4B70B525
:10131800C31A46681B11044601330D463371114642
:10132800FFF7DCFF01226368064C5A7122781D60C2
:1013380012B9054805F098FE0123237070BD00BF5F
:10134800D4A90000911100201402002070B50F4BA1
:10135800D3E8EF5F6A1CC3E8E12F0029F8D12DB963
:101368000B4C0C4E361B3611B54200DB70BD237B8F
:1013780043B123685B6903B19847042200212046E2
:10138800FFF7C4FF01351034EEE700BF0803002063
:10139800D4A90000E4A9000053B1436807491879AB
:1013A80000EB400351F82200D84000F007007047D6
:1013B800034B03EBC2021079704700BF9401002071
:1013C80074A90000144B37B59842044602D3134B56
:1013D80098421CD300220023114801A905F022F9E4
:1013E8000546B8B90122019BD3E8EF1FC3E8E02FF7
:1013F8000028F9D1019821461F22043008F0B0FBDB
:101408007E23019C84F8233084F824500434204639
:1014180003B030BD034CFAE704A7000098D00000E1
:10142800140300204CBB000048B1054B984205D37B
:10143800A03398422CBF002001207047002070473D
:10144800802A00202DE9F04F554B05461B7885B0C2
:1014580003B940B34FF02003EFF3118683F31188EB
:10146800BFF36F8F4F4806F075FF044686F3118867
:10147800BFF36F8F58B14C4BD3E8EF2F013AC3E855
:10148800E12F0029F8D195B1204607F06FF825B96A
:10149800464B1B680BB1FFF793FE424806F058FF16
:1014A800051E18BF0125284605B0BDE8F08F404B42
:1014B8001B78CBB9237ADA0716D407F066F880468A
:1014C800204607F031F80146404606F056FF06462A
:1014D800384F394BDFF800B1DB1BDB080393374B80
:1014E800DB1B4FEAD30A46B9354E364F4FF000089A
:1014F800BF1BDFF8E8903F114EE0B6FA86F1C1F164
:101508001F094946204607F012F82F4B014698421A
:1015180002D32E4B98421ED30846FFF785FF02469A
:10152800C8B92B4B994216D063890399C3F3891321
:101538008B4238BF57F83320DBF800305B070AD0FE
:101548004FEA8A1343F00103ADF800304946434699
:10155800204806F071FF012101FA09F126EA010687
:10156800C1E773685A79A2B160891B79C0F3891001
:1015780003EB430259F82030A17AD34001F0070168
:1015880003F00703994204D83368214630461B68A4
:10159800984708F101081036B845E2DB74E700BF48
:1015A800911100200C0300200003002004030020F8
:1015B8009211002074A90000D4A9000094A9000089
:1015C800D4A90000E4A9000004A7000098D00000F6
:1015D8004CBB000066BB0000A40100209401002061
:1015E800274B73B51B68418104469847254DE06039
:1015F800D5E8EF3F0133C5E8E23F002AF8D14FF0C4
:101608002003EFF3118683F31188BFF36F8F1E4811
:10161800214606F093FE86F31188BFF36F8F1B4BAC
:101628001B7883B14FF02003EFF3118483F3118803
:10163800BFF36F8F0020FFF705FF84F31188BFF316
:101648006F8F02B070BD124A2B681268002AF8D05A
:10165800012B0AD1002200230E48CDE900234FF4C4
:101668000042002305F0FAFFEBE70A2BE9D109480D
:1016780008F0F2FE084802B0BDE8704005F0F4BC7E
:1016880004000020000300200C0300209211002019
:10169800D8030020B80200201402002010B5FFF77C
:1016A80055FE05F0DBFC0C4B186030B10B4B1B688A
:1016B800092B02DD0A4805F0D7FC094C0020FFF78A
:1016C800C1FE0028FAD14FF0FF324FF0FF33204619
:1016D80005F0F0FCF2E700BFD8030020000300206B
:1016E80014020020F8B50E4F3D7875B9FFF72EFEAD
:1016F8000C4C0D4E361B3611B54207DB0020FFF7A8
:10170800A1FE0028FAD101233B70F8BD63685B791C
:101718001BB1236820461B69984701351034EBE755
:1017280092110020D4A90000E4A9000007B50438EC
:101738000190D0E8EF3F5A1EC0E8E12F0029F8D108
:10174800012B03D1034801A904F09EFF03B05DF803
:1017580004FB00BF14030020202302491A46024854
:1017680008F0B7BC202B0020DC030020002337B58D
:10177800094D01930120FFF765FE0446FFF742FD7E
:1017880000220023284601A904F04CFF08B1002CD0
:10179800F0D1019803B030BDDC030020002307B569
:1017A800002201930648002301A904F03BFF10B171
:1017B800FFF7DCFF0190019803B05DF804FB00BF60
:1017C800DC030020F0B5037A457A85B00190D8078C
:1017D8004FEA15151CD4DDB1002426463146019880
:1017E80006F0A5FE0746FFF71FFE70B134B9019B4E
:1017F8002946186906F0C1FD044648B124FA06F3E3
:10180800D90702D53846FFF791FF0136AE42E5D336
:10181800019B1A7A920704D55B69084C0393039BD2
:101828002BB9064801A904F02FFF05B0F0BD1D68CB
:10183800204603A904F028FF0395F0E7DC03002005
:101848000EB403B503AB53F8042B014604480193C7
:10185800FFF700FA002002B05DF804EB03B0704710
:10186800938800002DE9F04F11F0020485B09046EE
:1018780006461A469DF8387001F0010901F008057E
:1018880007D011F0440F37D13249FFF7D9FF01468D
:101898000C46B9F1000F0AD02F4B304653F82720D9
:1018A8002E4B2F49002A08BF1A46FFF7C9FF3DB142
:1018B8002C4B304653F827202B49FFF7C1FF05462C
:1018C800B8F1000F43D0012303FA07F7274B17F0AD
:1018D800100F274F18BF1F46BDF840109DF83C0059
:1018E800FFF79CFC394602463046FFF7A9FF28441B
:1018F800204405B0BDE8F08F1E4B19680029C7D0F9
:101908001D4B4FF4616E1B684FF47A7CB2FBF3F306
:10191800B3FBF1F4B4FBFEF20EFB124E01FB1434E0
:101928000CFB04F4B4FBF1FB4FF03C0A01FB1B4435
:101938000CFB04F4BEFBFAF3B4FBF1F1CDE901B101
:101948000AFB13E100910D49FFF77AFF9FE7084F63
:10195800C2E700BFB7BB0000E0AC0000A9BB0000B5
:101968003EC10000F4AC0000DCBB0000B3BB0000CB
:10197800AEBB0000F8030020FC030020C0BB000041
:1019880038B50C46E107054603D5084A0849FFF76C
:1019980057FFE20608D4A3062846BDE838404CBFE6
:1019A80004490549FFF74CBF38BD00BFA9BB00007B
:1019B8003EC100004FC000005CBC00002DE9F047AC
:1019C8001D46089B1746DA0604460E4605D49906B6
:1019D8004CBF2A492A49FFF733FF4FF00008DFF8C8
:1019E800A890A8452ADB0025DFF8A080DFF8A090A2
:1019F800DFF894A0BD422FD249462046725DFFF71A
:101A08001FFF0135102D20D120461E49FFF718FF72
:101A18000025DFF87480DFF87C90AF4228D9725D2A
:101A28004946A2F120035F2B28BF2E222046FFF74C
:101A380007FF0135102D14D1BDE8F087494620462F
:101A4800FFF7FEFE08F10108CBE76A07D2D151463D
:101A58002046FFF7F5FECDE741462046FFF7F0FEAA
:101A6800CFE76B07D9D141462046FFF7E9FED4E717
:101A780041462046FFF7E4FEDBE700BF4FC0000009
:101A88005CBC0000ECBB0000EABB0000E8BB000047
:101A9800E2BB000076C300002DE9F0478B7A1746B9
:101AA80013F0070805460E460A7A8AB021D0D243B9
:101AB8004989C3F3C203C1F38911CDE900830291B7
:101AC800F368394602F00102FFF7CCFE8146347A0A
:101AD800E44314F001040ED02946304606F06BFDAD
:101AE800B8F1000F2BD0424639462846FFF748FF89
:101AF80025E0C146EBE7B8F1000F26D12746EB6891
:101B080006AA069330463B46A96806F040FD069AA9
:101B18006B681A603AB1AB68134413F8014CA4F12E
:101B28000A035C425C41284606F0A2FE069B1F445D
:101B3800002BE4D11CB128461349FFF781FE284643
:101B480006F096FE0AB0BDE8F087304606F01DFDA7
:101B58000E4902462846FFF773FE4FF0100A05AA01
:101B68002346304606A9CDF814A006F010FD059AC4
:101B7800002AB8D04B462846009706A9FFF71EFF53
:101B8800059B1C44EBE700BFEEBB00003EC1000014
:101B980073B5D0E900435D6842F20F738B4228BFEA
:101BA8000B46684605210C4A06F046FA06462B46BF
:101BB80020460422094906F0F1FC2B4632466946C4
:101BC800204606F0EBFC2B4617222046044906F077
:101BD800E5FC02B070BD00BF58C3000028BC00007F
:101BE80010BC000001230021074A10B5074C136000
:101BF800A04204D801B11360054B186010BD012143
:101C080040085B00F4E700BFFC03002040420F00DF
:101C1800F803002000230428CB604B6098BF044BD6
:101C2800044A98BF53F820308A600B60704700BFA1
:101C380048AD000024AD00000023084A0B60CB60CB
:101C48004B608A60064B074AD21AB0EB221F3EBF90
:101C580003EB00139B680B60704700BF88AE000061
:101C6800D4A90000E4A900002DE9F347074600269F
:101C7800104C114DDFF844802D1BDFF84490DFF83D
:101C880044A02D11AE4203DB002002B0BDE8F0876E
:101C98006268002153791279002B14BF43464B46E2
:101CA8003846CDE90032A368524606F020FF0136D7
:101CB8001034E7E7D4A90000E4A900002DBC000017
:101CC80035BC00003EBC00002DE9F74F214B224DEA
:101CD8000646ED1A4B680F465B79ED081BB90421DF
:101CE8001E4A06F004FF002130461D4B1D4A06F02F
:101CF800FEFE002130461C4A06F0F9FE0024DFF8FB
:101D08006CA0DFF86CB0AC4203D1002003B0BDE892
:101D1800F08F2246012300213846FFF73DFB0023C0
:101D28002246194680463846FFF736FB814621464B
:101D38000020FFF773FA5AF82920034601925AF84F
:101D480028200021009230465A4606F0D0FE013481
:101D5800D9E700BF74A90000D4A900005FBC000047
:101D680071BC00007DBC00009BBC000034AD0000CD
:101D7800D8BC00000023064A10B50C46CB604B6067
:101D88008A6001461846FFF749FA206010BD00BF77
:101D980024AD00002DE9F74F52F804BC0746584619
:101DA80091468A46009307F0FCFE4FF00008024671
:101DB800134C144E361B3611B04508DB5B46022126
:101DC8003846114A06F093FE6FF0070513E0A16844
:101DD8005846019207F0F8FE1034054618B1019AEA
:101DE80008F10108E8E706494B4652463846009C88
:101DF80001EB0811A047284603B0BDE8F08F00BFEB
:101E0800D4A90000E4A90000ECBC000008B5024B0E
:101E1800FFF7C0FF002008BDD11C0000014BFFF7F1
:101E2800B9BF00BFC1880000014BFFF7B3BF00BFB7
:101E3800C9880000014BFFF7ADBF00BF451F000078
:101E4800014BFFF7A7BF00BF4589000010B5C36964
:101E5800DB681C792CB90221034A06F048FE2046AB
:101E680010BD0120FCE700BF01BD00002DE9F04FC7
:101E78001F462C4E2C4B151EA6EB03064FEAD60622
:101E880014BF2B46334685B002934B6880465B7976
:101E980089461BB90421254A06F029FE0024DFF8EB
:101EA80098A0029B9C4202DB05B0BDE8F08FB5B359
:101EB800002357F824B09E4207D10221404657F824
:101EC80024301B4A06F013FE22E019460020039333
:101ED800FFF7A4F94022594607F076FE039BC8B9DC
:101EE8001A4600210E9B4846FFF7A6F90E9B83462B
:101EF80083420DD085B921462846FFF78FF903465E
:101F08005AF82B200421009240460A4A06F0EFFDB9
:101F18000134C6E70133CEE757F82430F0E722460C
:101F2800DFE700BFD4A9000074A9000025BD0000A8
:101F380050BD00003ABD000034AD00002DE9F74F58
:101F48000646884691461D460027D3F804B0DFF8B8
:101F580048A0042258465AF8041B07F035FE0446E8
:101F680070B10137052FF4D1022130466B68094A58
:101F780006F0BDFD6FF00704204603B0BDE8F08F02
:101F880041463046009705F10803A9F10202FFF720
:101F98006DFFF1E76ABD000034AD000013B50446DB
:101FA80005F010FAC0F307230193C0F30743009329
:101FB8000021030E034A204606F099FD002002B0D6
:101FC80010BD00BF11BF00002DE97848044608F095
:101FD80035FA4FF47A760025A0FB06BC06FB01CC47
:101FE8004FEADB32204642EA4C432946024A06F0D1
:101FF8007EFD2846BDE878882ABF000010B5044653
:1020080001F094FF00210346074A204606F06FFDC1
:102018002046064A002106F06AFD2146044805F0DC
:1020280073F8002010BD00BF39BF000058BF000082
:102038009920000030B50146044687B0114805F0E4
:1020480063F80023104A12F8011BAA2903D10133AF
:10205800B3F5006FF7D16422C3F500614A43D20A91
:10206800002505924FF400622046CDE90312CDE920
:1020780001232946044B054A009506F038FD2846F9
:1020880007B030BD712100008022002062BF00002F
:10209800F0B587B004460D46D0F8987008F07AF984
:1020A800064604F0DBFF214B214A002E08BF1E46DE
:1020B800204B0021844218BF1346CDE9004628462C
:1020C8001D4A06F014FD236A0021019394F90E308D
:1020D80028461A4A0093237B06F009FD204605F09E
:1020E8005BF800210346164A284606F000FD05A9BC
:1020F800204608F051F9014638B103460021284628
:10210800104A06F0F4FC07B0F0BD6423059AB81A2B
:102118004343B3FBF7F3CDE90020CDE9027328462A
:102128003B46094A06F0E3FCEDE700BFA8BF000004
:10213800EABB0000BECE0000ABBF0000B7BF000086
:10214800E1BF0000EDBF00001AC0000010B5044652
:1021580001F006FF00210346024A204606F0C7FCAC
:10216800002010BD51C00000F0B505460E46D0F85D
:10217800987089B007A908F00FF9044638B10346EA
:10218800002130460F4A06F0B2FC09B0F0BD2846DF
:1021980008F000F96423079ADFF830C0B91A4B43F6
:1021A800002808BF6046B3FBF7F3CDE90221CDE96B
:1021B8000473CDE900072B4621463046024A06F053
:1021C80096FCE2E7EDBF000067C00000A8BF000072
:1021D8002DE9F04100210E4A054606F088FC0D4C19
:1021E8000D4E0E4FDFF83880B44202D10020BDE812
:1021F800F081A36853B13A4600212846236806F0C7
:1022080076FC42460021284606F071FC1034EBE7C4
:1022180032C1000034010020940100203CC10000BC
:102228004FC00000F8B5054600200A4B0A4F53F886
:102238002140013153F82160A64200D8F8BDA368B7
:1022480033B128463A460021236806F050FC0120A5
:102258001034F1E740AF000041C1000010B504465A
:1022680000211E4A06F043FC02212046FFF7DAFF50
:10227800014618B920461A4A06F039FC00212046C2
:10228800184A06F034FC03212046FFF7CBFF01462D
:1022980018B92046124A06F02AFC00212046124AA4
:1022A80006F025FC00212046FFF7BCFF014618B9BF
:1022B80020460B4A06F01BFC002120460B4A06F07C
:1022C80016FC01212046FFF7ADFF014618B920464C
:1022D800034A06F00CFC002010BD00BF47C10000F7
:1022E80055C100005DC100006BC100007AC100004B
:1022F8007FB50A684B6904924A6803F26C730392CB
:102308008A680292CA6801920A6900210132009221
:10231800024A06F0ECFB07B05DF804FBDFC10000E1
:10232800F7B5137806463A2B0F46154616D1541CB6
:1023380023783A2B2ED1013400230A22204601A902
:10234800019307F06DFB019A0346A242386010D052
:10235800107870B93C2B0ED9184A14E000230A22D1
:10236800284601A9019307F05BFB019CB860AC42C9
:1023780003D16FF0150003B0F0BD23783A2BF8D1E4
:10238800172805D90E4A0221304606F0B0FBF0E7BF
:102398000134CDE700230A22204601A9019307F062
:1023A8003FFB019A7860A242E3D013783A2BE0D140
:1023B8003B2801D9034AE6E7541CBDE71EC20000CA
:1023C80000C200000EC200002DE9F04304460D468D
:1023D800174691B0012002A903F0F0FA07A902A854
:1023E80003F00AFA032D60D14FF000097D680A2234
:1023F800284601A9CDF8049007F012FB019E8046FB
:10240800B54218D032782D2A15D101360A22304625
:1024180001A9CDF8049007F003FB019B9E420AD066
:102428001A782D2A07D1451E0B2D0DD92B4A0221CA
:10243800204606F05CFB204606F066FB6FF01505AB
:10244800284611B0BDE8F0835E1C0A22304601A977
:10245800CDF8049007F0E4FA019B9E42EBD01B787C
:10246800002BE8D1431E1E2B01D91D4ADFE7A8F235
:102478006C73CDE90B53BA680A90204607A9FFF799
:102488004FFF0028D7D107A805F0EDFD0B460246FF
:10249800CDE90223013308BFB0F1FF3F09D1022182
:1024A8002046104A06F023FBC8E7022DC3D17A68FC
:1024B800E3E70023012002A90493FEF711F805467B
:1024C80030B1034602212046074A06F010FBB5E763
:1024D800204607A9FFF70CFFB2E700BF2EC2000095
:1024E8003DC200004AC2000073C2000037B58368CD
:1024F8000446D3F858220D46520608D5B3F8582298
:10250800C0686FF38612A3F8582206F069FFE368E3
:10251800DB6863B99DB3A068383006F06EFAA3682B
:1025280078B303F1380103F59C7007F00FFBA2683C
:102538002946E0680DF10603383206F054FF58B911
:10254800A06800F59C71383007F000FBA0683830AF
:1025580006F053FAADF80600204606F081FD0A4A57
:102568000A49606906F04FFA204600F013FFA36895
:10257800BDF8062020469A865A8600F0CDFE03B0A4
:1025880030BD83F83801D2E765C300003EC10000C2
:102598002DE9F04F0022044683689DB0DE69383388
:1025A800CDE90322019306F061FD204606F0E6FC22
:1025B80018B9A449606906F026FAA0681422002117
:1025C800083007F062FB204606F085FCA168E06849
:1025D8004A8E383106F03EFF204607F0FCF8002E00
:1025E80000F00D8133680F93019B1093F3685BB380
:1025F8003746A5680FCF08350FC53B68DDF80C8056
:102608002B60B36823BB737CFE2B21D1377C08F188
:102618000103013F0393D6F804E0BEF1000F08D090
:10262800B446F246BCE80F000AAD0FC5DCF800302E
:102638002B60039B0DF14009013303934FF0000B0E
:102648005D46CDF800B071E04FF0FF379846E2E7FD
:102658004FF0FF37DFE7012A06D128B102212046D3
:10266800794A06F09EFD77E0039B002B7AD07749E4
:10267800D9F8000007F09CFA40B9BAF1000F40D130
:10268800734A0221204606F08CFD65E07149D9F8AD
:10269800000007F08DFA0028EFD0039B002B61D0D3
:1026A80029462046D9F8002001F092FA022836D1AE
:1026B800009BB3B1204607F0B2F8A2680C23D16999
:1026C8000FA8003918BF0121383200EB81010DEB4A
:1026D800030006F096FAA368DB6913B1039B013384
:1026E8000393A0684369002B40F09080BAF1000F73
:1026F80032D0C3689A450DD0CDF82CA000F108055A
:1027080003E0A568CDF82CA008350AAE0FCE0FC59A
:1027180033682B60204606F083F901251EE0032864
:1027280020D0039B0133039301230093049B012BC7
:10273800BED0039B0C2BBBD8002FB9D00223019A23
:10274800494604A806F05DFAD9F804200346019228
:10275800049A002A7FF47FAF6FF0070528461DB062
:10276800BDE8F08FBBF1000F06D13046D9F8001054
:1027780005AA06F035FB054609F10409013F002DBD
:1027880033D0009B4BB1EB683BB1204606F06EFCA2
:10279800204600F0C1FD304A73E7EB68ABB1AC46A8
:1027A800A668BCE80F0008360FC6DCF80030DDF874
:1027B8000C803360AB6843B96B7CFE2B01BF2F7C68
:1027C80008F1010307F1FF370393D5F804C0BCF102
:1027D800000F08D0AE46E246BEE80F000AAE0FC6AC
:1027E800DEF8003033602E4601E04FF0010B17B9D8
:1027F800049B022B9AD1039B0133039396E7B246BD
:102808004FF0FF37B0460DF13C0917E7039D037EF3
:10281800A5EB080523B34FF6FF71427EFF2A08BFD8
:102828000A469D4202D313449D4219D98368022166
:1028380020460A4A06F0B5FC204606F0F1F86FF08B
:1028480015058BE74FC00000B8C20000CCC20000DD
:10285800D6C20000CFC20000F4C2000023C30000AB
:1028680000F53B7006F0C7F8A3682946B3F858226C
:10287800204642F08002A3F858220FAA02EB8802F1
:102888005B6998470546A0684FF0FF32B0F85832A8
:1028980000F53B706FF3C71320F8943C4FF0FF33FB
:1028A80006F0D1F85AE700BF2DE9F04F04468368D7
:1028B800ABB003F51673D3E8EF2F42F00802C3E874
:1028C800E12F0029F7D1A3681B79022B40F03D8343
:1028D80000230B936068012203680DF12B011D6929
:1028E8000BABA8470B9B002B00F02F839DF92B20E7
:1028F8009DF82B30002AEDDBA0684179012900F012
:102908009F82022900F0B282002940F01C830D2B1F
:102918001CD00A2B1AD0B0F8582261F30F22A0F865
:102928005822092B5DD042D8002BD3D0082B00F0B9
:10293800ED81A3F120025E2A00F2F781B0F8582257
:10294800194642F04002A0F8582206E1D0F8582271
:1029580012F47F4F05D0D0F85822C2F307229342D1
:10296800DFD1B0F8582263F30F22A0F85822428E24
:10297800CAB9B0F8583262F38613A0F85832E06842
:1029880006F02EFDB349606906F03DF8A3680222FF
:102998001A710022A36883F838209A865A8620463E
:1029A80000F0FAFD96E72046FFF7F2FDEEE71B2B55
:1029B80014D07F2BBDD1D0F858325F078AD5B0F834
:1029C800583243F04003A0F85832D0F858329E06E7
:1029D80000F1A781204606F025FC7BE7012343711F
:1029E80078E7D0F8583259077FF574AFB0F8583205
:1029F80043F04003A0F85832438EFF2B3FF46AAFF0
:102A0800828E00F1380100F59C7007F013F900215F
:102A1800A2680DA8938E134483F8381102F59C72AE
:102A28000C231DA906F0EDF8A068838E034493F8E3
:102A38003730202B61D0093B042B8CBF00230123A6
:102A48000D9919B1002B5BD1012958D10023C66912
:102A58000C930C9B2AAA02EB830353F834AC002591
:102A6800504605F0CAFFA84681462F4604953946C8
:102A7800304618AA00F002FC834600284DD1012DEB
:102A880074D10C9B2AAA02EB830353F8340C05F08B
:102A9800B4FFA268054641463046083200F0EEFB16
:102AA8000646006805F0A9FF854206D03168421B3A
:102AB80092B22046294406F0B3FBA3689A8E1A44C2
:102AC80092F83820202A4CD0093A042A49D9D3F858
:102AD8005822D20740D5B3F8582220216FF30002BC
:102AE800A3F85822204600F025FDA268B2F8583213
:102AF80043F00103A2F85832ECE60123A0E70139BC
:102B0800002301930EAB0093C0690CAB1DAA06F01D
:102B18007EF9064600289CD1DCE64A465146DBF899
:102B2800000007F051F80346DBF8000028B1DBF895
:102B38000C2012B9DBF8082062B15BB907F031F854
:102B4800049B834238BF03469BB2002D08BFB8469A
:102B58000493013501378AE72021204600F0EAFC7A
:102B6800B8E60121204606F01DFAB3E67FF6B2AEBC
:102B78000C9B2AAA02EB830353F834AC504605F0A9
:102B88003CFFA3680690A3F830B0DFF8CCB00595F9
:102B9800CDF80C80A26830460399083200F06EFB2D
:102BA800039B0746006801330393002856D13B680E
:102BB800002B62D1A2681386059B013B0593E9D1DE
:102BC8002449606905F01FFF204600F0E5FC0C9BD6
:102BD8002AAA02EB830353F8340C05F00EFF414692
:102BE80013AA0746304600F049FB08F10109804660
:102BF800A068D8F80010FF2200F59C7006F0B0FF1E
:102C0800D8F800A04FF6FF784946304618AA09F1CF
:102C1800010B00F033FB00286BD00022A36800688A
:102C280003F59C7313F801CB815C614505D121B193
:102C38004FF6FF7101328A42F4D10FB1BA4207DB75
:102C48009045A8BF9046013D012D1FFA88F850D045
:102C5800D946D9E74FC00000E9BB0000FB6813B9AB
:102C6800BB68002B96D0BAF1000FA0D05146069A47
:102C780006F0AAFF00289AD08CE75846079305F07B
:102C8800BCFE049BA168C21892B258464F8D0992A7
:102C980005F0B3FE079B0890184605F0AEFE0899AC
:102CA800099A7F1AA2EB000997FBF2F2A06892B288
:102CB800B0F830C0079BBCFBF2F102FB11C20CF16B
:102CC800010E92B21FFA89F9A0F830E05AB90093C0
:102CD80007215B462046A44A06F063FA4946204687
:102CE80000F00AFB68E707212046A04A06F059FAD7
:102CF800F4E7B8F1000F3FF4EDADA8EB070220466A
:102D080092B20AEB070106F08BFAE3E5D0F85832E5
:102D18005B077FF5DFADB0F8583243F04003A0F809
:102D28005832204606F099FAD4E5D0F858225507CB
:102D38007FF5D0AD013B162B3FF6CCAD01A252F882
:102D480023F000BF152F0000A92D0000B12D0000B1
:102D5800DD290000092F0000D72D0000DD28000024
:102D6800DD280000DD280000DD280000DF2D000040
:102D7800E72D0000DD280000FD2D0000DD28000003
:102D8800072E0000DD280000DD280000DD280000F7
:102D9800DD2800000B2E0000DD280000372E000083
:102DA800204606F06AF995E5204606F05FF92046C8
:102DB80006F0E4F818B96E49606905F024FEA368C6
:102DC800B3F8582242F04002A3F85822DFE5204623
:102DD80006F05BF97EE5204606F060F97AE5606961
:102DE800644A624905F00FFE634A6049606905F06C
:102DF8000AFED4E500212046FFF778FB6AE50121A9
:102E0800F9E7204606F02CF90022A368574983F811
:102E180038209A865A86A268B2F8583243F040039E
:102E2800A2F858326069554A05F0EDFD52E5204692
:102E380000F002FBA268B2F8583243F0400359E6AA
:102E48005B2B01D10223CAE5D0F85822500709D5D7
:102E5800622B05D14FF0FF31204606F0C7F801E09C
:102E6800662BF9D00022A3685A7133E5002242711B
:102E7800A268D2F8581249077FF52CAD313B1B2BBD
:102E88003FF628AD01A151F823F000BF112F000033
:102E98001D2F00003D2F0000052F0000DD28000039
:102EA800DD280000DD280000DD280000DD28000006
:102EB800DD280000DD280000DD280000DD280000F6
:102EC800DD280000DD280000DD280000072E0000B6
:102ED800FD2D0000D72D0000A92D0000DD280000E1
:102EE800092F0000DD280000152F0000DD28000054
:102EF800DD280000DD280000212F00000323537186
:102F0800204606F0B3F8E5E403235371204606F0A3
:102F1800A7F8DFE403235371A268D2F85832B2F855
:102F2800581203F0010383F0010363F30001A2F8D0
:102F38005812CFE403235371A368D3F858325B07C0
:102F48007FF5C8AC46E5002349E5A36803F5167389
:102F5800D3E8EF2F22F00802C3E8E12F0029F7D1C8
:102F68002BB0BDE8F08F00BF3EC300003EC100009B
:102F78004FC0000069C300006DC3000065C30000B6
:102F88002DE9F041044688B00F464FF44172002104
:102F980080681E4606F079FEA3682268E0681A6019
:102FA80006F0C5FAA06800F53B7007F0C7F84FF4C3
:102FB80027784FF41775A068284407F087FBA068A6
:102FC8000022431901214044103507F062FBB5F592
:102FD800277F08F11408EED10022A3691A60A268BD
:102FE800B2F85832106843F01003A2F85832B2F819
:102FF800583243F00403A2F85832B2F8583243F07A
:103008002003A2F8583201231371194B936205F07B
:10301800F4FCA368394683F82C00A268B2F8583249
:1030280043F00203A2F858326068124A03681D6828
:103038002346A8470546B8B9D4E90A010022002367
:10304800CDE906230E2303930E9B4FF40062CDE9CE
:1030580001630495084B009404F026F9A368616A9B
:10306800C3F8000304F088F8284608B0BDE8F081EA
:10307800180050003B8A0000C530000038B583684E
:1030880005461B79012B14D1002100F08BF90A4960
:10309800686905F0B8FC02220024AB6828461A715A
:1030A800AB6883F838409C865C8600F075FA204649
:1030B80038BD6FF02200FBE74EC000002DE9F0415B
:1030C800044640680E46036800219B6815469847E9
:1030D800002843D126B12A462146E06906F0E0FAE5
:1030E8002046FFF7CBFF002838D11D4F1D4E1E4D3F
:1030F800A06800F527704FF0FF334FF0FF3203212F
:1031080004F0FAFA034630B12046BDE8F041022146
:10311800164A06F046B8A0684FF0FF334FF0FF326A
:1031280000F53B7005F08FFC606803685B6903B1CC
:1031380098473A462046022105F02DFC32462046A3
:10314800002105F028FC20462A46012105F023FC31
:10315800A06800F53B7005F04EFCC9E7BDE8F081BA
:10316800C9890000B1280000538A000044C3000048
:103178002DE9F84F82460F4615460E460DB9BDE8B3
:10318800F88F102D4FF0000150462B4AA6EB07038D
:10319800A8464FF0000428BF4FF0100805F0A7FC20
:1031A800DFF8A890A04533D900215046335D234A63
:1031B80005F09DFC0134102C22D100215046204AF4
:1031C80005F095FC0024DFF88490DFF884B0A04572
:1031D8002CD9335D0021A3F120025F2A28BF2E23BA
:1031E8005A46504605F083FC0134102C16D10021B4
:1031F8005046144A05F07BFCA5EB08054644BDE79C
:1032080014F00701CED14A46504605F070FCC9E7D4
:10321800002150460C4A05F06AFCCBE714F0070180
:10322800D5D14A46504605F062FCD0E74A4600210F
:10323800504605F05CFCD7E75BC30000E2BB00002A
:10324800ECBB000062C30000E8BB0000EABB000062
:1032580076C3000010B5044613460A4601460648E0
:1032680001F0BCFD23691B7923B12046BDE810405D
:1032780005F05FBC10BD00BF538B000010B50B46B6
:10328800144650B90E490F4A521AB3EBD20F0FD257
:1032980001EBC3014C68204610BD816841B14A6802
:1032A800097839B11846214690472368002BF2D196
:1032B8000024F0E714204343D418D358F6E700BF9E
:1032C80014AA0000A4AA0000014A024905F035BE6C
:1032D80079C300003EC1000059B1002981EAE172BA
:1032E800A2EBE172CCBF412342230249406905F0B9
:1032F80024BE704772C3000059B1002981EAE17207
:10330800A2EBE172CCBF432344230249406905F094
:1033180014BE704772C3000010B5044605F02EFEB7
:1033280028B160690549BDE8104005F006BE04F102
:10333800080005F00FFE0028F3D110BD4FC00000B3
:103348002DE9F041064656F8084F0546628E04F10D
:103358002000A18E05F03FFC3046B4F82480E78CAD
:1033680005F0F8FD18B10A49686905F0E6FDB845A9
:1033780007D1218C638C2846BDE8F041C91AFFF7B4
:10338800BBBFE18CA38C2846C91AFFF7A5FFF0E75D
:103398004FC00000826802494069383205F0CDBD4F
:1033A8003EC1000007B5836893F82E208A4212D0E8
:1033B80083F82E10406989B1094B6A46009333237C
:1033C8008DF804306D232F318DF80510ADF80630D7
:1033D800044905F0B2FD03B05DF804FB024AF7E7C3
:1033E8001B5B313B3EC1000083C3000037B50D466F
:1033F80009780446FFF7D6FF6B78CBB1A26892F83C
:103408002F10994214D045F61B31ADF80010342125
:103418008DF8021003F12F018DF803106D2182F849
:103428002F30ADF804106A460249606905F085FD41
:1034380003B030BD3EC10000F8B5836805465A8E1A
:10344800002A46D0988E002843D03730184403F11C
:1034580038060346C41AB3421946A4B20DD311F86C
:103468000179202F33D019460878013B202804D051
:1034780001349E421946A4B2F5D90027631C4E1C9C
:10348800121B1944304606F0BEFBA96828464A8E2E
:10349800121B92B24A860A44614282F8387009B215
:1034A80005F080FD68690B4A0B4905F046FD394671
:1034B80033462846084A05F074FE6869FFF704FF9A
:1034C8006869064A0449BDE8F84005F036BD0B4670
:1034D800C0E7F8BD7DC300003EC1000080C3000006
:1034E80070B504460D46164612B14069FFF7ECFE6A
:1034F800A2682046938E0021383313440B4A05F006
:1035080050FE204650F8083F5A8E9A8605F022FD54
:1035180028B106B11DB10649606905F00EFD694282
:103528002046BDE8704009B205F03CBD3EC1000030
:103538004FC0000013B583688DF80710D3F85822E0
:103548000446D2071DD5998E5A8E8A4219D09DF805
:103558000720481C98860B4483F83820A368D3F8C2
:1035680058325B070BD56069094905F0E6FC20462F
:1035780005F004FD18B10749606905F0DEFC02B0EA
:1035880010BD012220460DF1070105F017FEF6E7F0
:1035980076C300004FC0000010B5044683680321BD
:1035A8001B68084A05F0FDFDA368D3F858325B078D
:1035B80007D52046FFF7EEFE2046BDE81040FFF78E
:1035C800BFBE10BD3EC1000038B50C461546426866
:1035D80011688B60A368C1E9004523B19B6C13B1E6
:1035E800204604499847A3689B6A0BB12046984730
:1035F800002038BD2936000007B5074802F066FEEE
:1036080004230093012301461A460448FFF7B8FC37
:10361800002003B05DF804FB87C30000E4A90000A4
:1036280003682DE9F34705461F68BB685B6C0BB15F
:1036380038469847BB685B6B002B32D038469847B2
:1036480000282ED04FF00009354E364BDFF8DCA0AD
:10365800F61AF608B60146F00206E86801A90269FA
:1036680004F0C3FD804600283DD02B6818688368A5
:103678009C691CB142460199A0470446002C21468A
:10368800E86818BF4FF0010904F0CAFD0CB1A04565
:10369800E3D0B9F1000F04D02B680020D3E9012151
:1036A8009047BB685B6ADBB138469847C0B1A868E9
:1036B8002B68026901A91E6804F0E4FD044648B3BA
:1036C800B3685B6923B302460199304698470146BF
:1036D800A86804F0F8FD2B680120D3E90121904780
:1036E80002B0BDE8F087DAF8003013F0060F03D017
:1036F80031460D4804F066FE2B68186883689C699B
:10370800002CC6D001220DF10301A0470446BDE7F5
:103718001946DDE7304605F0B1FD2B68DC60DAE7D5
:10372800BCA9000074A900008EC30000B8010020E5
:103738002DE9F047044690460E4600296ED0002534
:10374800735D202B25D0093B042B22D9DFF8D090BC
:10375800304606F026FAA36880B2598D401BA1EBCB
:103768000803984206EB050A15D95046002710F8B9
:10377800012B202A06D0A2F1090CBCF1040F02D8B3
:103788000A2A31D03B4608EB070291422BD9013770
:10379800EDE70135D4E753460027B84217D013F8B0
:1037A800012B05EB07090A2A1BD1606905F0C1F94D
:1037B8003A465146204605F095FC1949606905F0DE
:1037C800A9FD4146204609F10105FFF795FD60690D
:1037D800711905F09FFD60691149BDE8F04705F0D2
:1037E80099BD0137D9E71F46606905F0A2F93A4645
:1037F8005146204605F076FC3D44735D202B0BD0E6
:10380800093B042B08D94946606905F083FD414608
:103818002046FFF771FD9BE70135EEE7BDE8F0872D
:103828004FC0000000212DE9F04F04460D46866880
:103838008DB00836304607AA01F10108FFF71EFDD2
:103848000746B0B995B10146214A204605F0A9FCC2
:103858003946DFF88080DFF880A0DFF880B04B1CA5
:10386800304607AA0493FFF709FD60B90DB0BDE81B
:10387800F08F386810B106F094F980B2854238BFED
:1038880005464146D6E70368D0F8049011480593E9
:1038980006F087F9059B07467BB1CDE9013852460A
:1038A800434600212046009505F07BFCB9F1000F46
:1038B80005D15946606905F02DFD0499CFE76A1CCA
:1038C80002EB47024946204692B2FFF731FFF4E780
:1038D800D0C30000ECC30000DEC300004FC00000EE
:1038E800836873B505469868C8B106F05AF984B27A
:1038F8000C4E304606F055F9AB680096044400219A
:1039080028469B68084AA4B205F04BFC2246284684
:10391800AB68D96802B0BDE87040FFF709BF04463C
:10392800E6E700BFE8C300003FC3000038B504461F
:10393800064D074A2946406905F033FD6069294666
:10394800044A05F02EFD002038BD00BF3EC100002E
:10395800F2C90000F6C9000010B50446044A05493A
:10396800406905F01EFDA368034A00209A6210BD55
:10397800FBC900003EC100001800500008B583696B
:1039880000211B68024A05F0B2F8002008BD00BFFC
:10399800EFC3000010B504460021054A05F0A7F85A
:1039A80020460021034A05F0A2F8002010BD00BF00
:1039B800FEC30000EDC40000F0B5044600250F4F1B
:1039C80085B0A2680DF10E030121E06802F59C7232
:1039D80005F009FDBDF80E00A36858B103F59C7306
:1039E80000933A462B46002120466E1C05F07FF8CE
:1039F8003546E6E783F8380105B0F0BDB3B80000F6
:103A0800022907B50CD1536801930D4B0093136835
:103A18000C4A05F06CF86FF0150003B05DF804FB74
:103A28008368094AD3F85832002113F0040F074B72
:103A380018BF1346064A05F05AF80020EDE700BF04
:103A4800BEC50000B5C5000018B70000A9B4000045
:103A5800D3C50000F0B50129054685B00DD05368DF
:103A680002210193524B6FF0150400931368514AD9
:103A780005F03DF8204605B0F0BD00244E4A4F49F8
:103A8800406905F08EFC6FF0F9012846FFF724FC29
:103A9800FA212846FFF730FCA8684FF480722146C7
:103AA80000F59C708DF80B4006F0EFF84449686902
:103AB80005F077FC686905F03CF84FF47A76686899
:103AC800012203680DF10B011F6903ABB847039B83
:103AD80053B9013E4FF47A70B6B206F059FC002E85
:103AE800EDD16FF0220431E09DF80B30AA681B2B52
:103AF80053D092F838111B29E1D1522B4DD1002314
:103B0800144484F8383192F839115B294DD11F4695
:103B1800022602F59D7010F8011B01363B29B6B24A
:103B280026D1B6F5807FDCD0002306F59C701044C2
:103B380010F8014B34BBFA2B28BFFA23FA2F538510
:103B48003B4628BFFA2382F8384113851D4A1B4992
:103B5800686905F026FC002C8CD0AB681A4A042151
:103B68009A622846194A04F0C2FF6FF0070481E7F9
:103B780007EB870301EB4303303BB6F5807F9FB229
:103B8800C9D1AEE703EB8303013604EB4304B6B2B5
:103B9800303CFF2EA3B2CBD9A3E711190134A4B24C
:103BA800092C81F838318AD9002382F8383198E70E
:103BB800BEC50000B5C50000ECC900003EC100004C
:103BC80001CA0000EFC9000018005000E4C5000059
:103BD8002DE9F04F07461546894689B021B90324D7
:103BE800204609B0BDE8F08F104605F0E0FD00283A
:103BF800F5D04FF000080224414624E05C463CE042
:103C080029460AF59C7005F081FF064600284ED02B
:103C180005F0C7FF82B2601C31460132304405F01E
:103C2800F2FF22465946304606F004F84FF02003CA
:103C38003355BAF8360008F1010804440134AAF8EB
:103C48003640002401994B1C484603AA0193FFF70C
:103C580015FB0646F8B100222846316804F0C6F97B
:103C68000028EFD1D6F800B0D7F808A0BBF1000FB4
:103C7800C4D0584605F095FF84B2BAF83620013210
:103C88002244B2F5807FBBDD2B4604213846094A21
:103C980005F087FA0124B8F1000FA1D0B8682A46C8
:103CA80000F1360100F59C7005F073F898E70224DE
:103CB800F1E700BF06CA000010B5074802F006FB8E
:103CC800064C074B1860204601F078FD2046FCF7AB
:103CD800BBFF002010BD00BF87C30000ED3C000003
:103CE800E00700200A2838B50446074D04D12868A3
:103CF80083680D215B68984728688368E1B25B6830
:103D08009847204638BD00BFE0070020F8B50C24CE
:103D1800114E0546F36804FB0034012363724FF02B
:103D28002003EFF3118183F31188BFF36F8F2368AA
:103D38002BB160681A688342226008BF626081F311
:103D48001188BFF36F8F03B9F8BD2946D3E9017213
:103D58003046B847E3E700BF3401002008B5114BEF
:103D68001A686AB14FF05022D2F80423D10707D558
:103D780000221A600C4BDB68587A08B9FFF7C6FFB7
:103D88000A4B1A6862B14FF05022D2F80423920706
:103D980006D5002201201A60BDE80840FFF7B6BF2B
:103DA80008BD00BF005100503401002004510050EC
:103DB800821C084B22F07F42C3F84025D3F8042523
:103DC800904200D17047D3F80405821C22F07F424C
:103DD800F2E700BF005001500022064B1A60064A65
:103DE800D3F800041368C01A20F07F40034413601E
:103DF80003F0A0BB40510150FC07002038B514481F
:103E080002F064FA00B38368002401211B68984714
:103E18004FF400120F4D104BC5F808451C600F4BAE
:103E28000121C3F880214FF480332246C5F80433BA
:103E3800152000F0ABF9152000F098F90123204671
:103E4800074A13602B6038BD4FF0FF30FBE700BF17
:103E580058CA0000005001504051015000E100E0F4
:103E680008500150F8B52C4B2C4CD3F804252C4B9A
:103E7800B0F1FF3F08BF20461968521A22F07F436D
:103E8800120236D4013820EAE070A042A8BF2046CA
:103E980001331844A04294BF0C180C194FF4803019
:103EA80000271D4B1F4EC3F80803D3F80415D3F899
:103EB800402521F07F45521A22F07F42012A3760BF
:103EC800C3F840551D46C3F8440303D10F2006F03C
:103ED8005FFA37604FF40012134BC3F88021D5F80E
:103EE8000405231A23F07F43012B04D1FFF760FF59
:103EF8000BE00020CCE724F07F43C5F84035D5F827
:103F08000405241A023C2302F0D44FF48032024BF9
:103F1800C3F80423F8BD00BF00500150FFFF7F0025
:103F2800FC0700204051015000E100E04FF0200262
:103F3800EFF3118382F31188BFF36F8F064AD2F82B
:103F48000405064A1268801A20F07F4083F311881E
:103F5800BFF36F8F704700BF00500150FC0700206F
:103F68004FF02003EFF3118283F31188BFF36F8FB3
:103F78000649074B0868D3F8043582F31188BFF364
:103F88006F8F1B1A23F07F4318447047FC070020EB
:103F980000500150014803F07BBC00BF9CB20000F8
:103FA80008B530B143683BB1006802F0C3FC00209B
:103FB80008BD6FF4E040FBE70048F9E7EA8FFFFF30
:103FC80038B5044618B90B4B0B485B6898476568C9
:103FD80055B115F00205206807D10146074802F0DF
:103FE80053FB25600023636038BD1422002105F0CF
:103FF8004CFEF7E7F400002082CA00000008002009
:1040080010B5044618B9144B14485B6898476368A0
:10401800CBB92368BBB94FF0FF324FF0FF332146CD
:104028000F4802F0FFFA08B923681BB90A4B0D487C
:104038005B68984714220021206805F026FE636813
:1040480043F002036360206806F078F8636843F081
:104058000103636010BD00BFF400002082CA0000A5
:1040680000080020A8CA000008B568B1436873B109
:1040780000684FF0FF334FF0FF3202F0E3FB054BCF
:10408800002818BF184608BD6FF4E040FBE7024857
:10409800F9E700BFE98FFFFFEA8FFFFF08B5064980
:1040A80040231422054806F014F8BDE808400449E6
:1040B800044803F025BC00BF1C08002000080020AD
:1040C800B4B20000A4B200000A4A0B499368096818
:1040D800C3F8A000C3F8A41008494B6843F0805304
:1040E8004B60002383F31188BFF36F8F9368D3F875
:1040F800A4007047A00E002098B3000000ED00E077
:1041080010498A684FF030001044EFF3098C80E8BA
:10411800F01F202080F31188BFF36F8F0A4F4FF0F4
:1041280000664A6A8A603E60D2F8A0000023C2F89E
:10413800A03080F3118802F1300090E8F01F8CF372
:1041480009887047A00E002004ED00E01EF0040F5F
:104158000CBFEFF30880EFF30980816911F8021CA6
:104168000229FFD001B505F026FC01BD43B2002BA2
:1041780008DB012200F01F0002FA00F0024A5B0986
:1041880042F82300704700BF00E100E043B2002B73
:1041980001F10101ACBF03F16043064B4FEA411145
:1041A800C9B2ABBF03F5614300F00F0083F80013F9
:1041B8001954704714ED00E02DE9F0410E4605460C
:1041C80017468C183046AA21984605F05EFD0D4B1F
:1041D800A4F1200222F0070223F00103C5E92567B4
:1041E8009361069BC2F800805360079B9360089B0D
:1041F800D3604FF08073D36100232A65C5F8A030DF
:10420800BDE8F0815B800000F8B50C46174606460D
:104218001D4600F023FC094B3C4424F007049E6033
:10422800284684F30988002163B681F31188BFF317
:104238006F8F0022002303F00CFF00BFA00E0020A8
:10424800014910220A60704710ED00E072B6404044
:1042580080F31188BFF36F8FBFF34F8F30BF62B603
:10426800BFF36F8F704700BFF7B507460C460029AC
:104278002DD01A4E3368580729D0194B194D1A48B2
:10428800ED1AED08AD0145F00105ADF80050D1E992
:104298000123096804F0D0F83368590717D0ADF83E
:1042A8000050D4E90423E168104804F0C5F83368E5
:1042B8005A070CD02A46E1690D4804F090F8336893
:1042C8005B0704D02A46A1690A4804F088F8214609
:1042D800384603B0BDE8F04002F022B8AC01002037
:1042E80074A90000A4A90000D5CA000004CB0000EE
:1042F80033CB000042CB000030BFFFF7FDBF00BF4B
:104308000E4A08B50E4B22F07F029A60BFF34F8F1A
:10431800BFF36F8FD3F8882022F47002C3F8882087
:10432800EFF3148323F0040383F3148802F090F866
:1043380002F098F800F05EFB02F0C6F800000000FA
:1043480000ED00E001B572B60B4A106A00281EBFE6
:104358000021116205F0BBFE62B6EFF30580A0F103
:1043680010004FEAC0000549014409C99847BDE853
:104378000140034908470000A00E00206CA7000078
:10438800BD49000003F0D4FF202080F311880B48BA
:104398004FF0AA014FF4006205F077FC07484FF48C
:1043A8000061401880F30988EFF314800221084364
:1043B80080F31488BFF36F8FFFF7A2FF80220020DD
:1043C800EFF30880EFF30981724601B500F0F6F9C2
:1043D80001BD00BF10B5474C2368590709D04649AD
:1043E800464B4748C91AC908890141F0010103F041
:1043F800E9FF444B9B6A9A010CD523685B0709D0F7
:104408003D493E4B4048C91AC908890141F001019C
:1044180003F0D8FF3B4B9B6AD8010CD5236859079A
:1044280009D03549354B3948C91AC908890141F0BD
:10443800010103F0C7FF334B9B6ADA020CD52368EE
:104448005B0709D02C492D4B3148C91AC908890185
:1044580041F0010103F0B6FF2A4B9B6A18030CD503
:104468002368590709D02449244B2A48C91AC9087E
:10447800890141F0010103F0A5FF224B9B6A5A0311
:104488000CD523685B0709D01B491C4B2248C91A65
:10449800C908890141F0010103F094FF194B9B6A97
:1044A80098030CD52368590709D01349134B1B48A7
:1044B800C91AC908890141F0010103F083FF114BB2
:1044C8009B6ADA030CD523685B0709D00A490B4BB2
:1044D8001348C91AC908890141F0010103F072FFA4
:1044E800084A0020936A6FEA03436FEA1343936212
:1044F80010BD00BFAC010020A4A9000074A90000F1
:1045080070CB000000ED00E088CB00009BCB0000E2
:10451800B5CB0000DFCB0000FDCB000022CC0000B3
:104528003CCC000070B5434C064623680D465B073B
:1045380009D04149414B4248C91AC908890141F08B
:10454800010103F03FFF3F4B9B6AD8060CD5236857
:10455800590709D03849394B3B48C91AC908890154
:1045680041F0010103F02EFF364B9B6A1A070CD568
:1045780023685B0709D03049304B3448C91AC90849
:10458800890141F0010103F01DFF2E4B9B6A98073A
:1045980024D52368590709D02749284B2C48C91A1C
:1045A800C908890141F0010103F00CFF254B596B43
:1045B8009B6A1A0612D523685B0709D01E4A1F4B4F
:1045C8002448D21AD208920142F0010203F007FFF0
:1045D80026B11C4A936A23F080039362194B9B6AA5
:1045E800D8070CD52368590709D01449124B1A4823
:1045F8005B1ADB089B0143F0010103F0E3FE114B5A
:104608009B6A9A060CD523685B0709D00B490A4BAD
:1046180012485B1ADB089B0143F0010103F0D2FE4C
:104628000020084B9A6A9A6A42F0FF029A62287040
:1046380070BD00BFAC010020A4A9000074A900004F
:1046480067CC000000ED00E07DCC0000B0CC00009D
:10465800C3CC0000DBCC0000F1CC000010CD000082
:1046680070B54A4C0D4623680646590709D0484993
:10467800484B4948C91AC908890141F0010103F0AA
:10468800A1FE464B9B6ADA040CD523685B0709D068
:104698003F49404B4248C91AC908890141F0010104
:1046A80003F090FE3D4B9B6A18050CD5236859070B
:1046B80009D03749374B3B48C91AC908890141F025
:1046C800010103F07FFE354B9B6A9A0524D52368C8
:1046D8005B0709D02E492F4B3348C91AC9088901ED
:1046E80041F0010103F06EFE2C4B996B9B6A180494
:1046F80012D523685A0709D0254A264B2B48D21AC7
:10470800D208920142F0010203F069FE26B1234A61
:10471800936A23F400439362204B9B6A5B050CD594
:1047280023685E0709D01A491A4B2148C91AC908D3
:10473800890141F0010103F045FE184B9A6AD00542
:1047480014D52368590709D01249114B19485B1A27
:10475800DB089B0143F0010103F034FE00200F4AFF
:10476800936A43F47F439362287070BD9B6A9A04EE
:10477800F4D523685B07F1D00649054B0E485B1A50
:10478800DB089B0143F00101E6E700BFAC01002014
:10479800A4A9000074A900003FCD000000ED00E0CE
:1047A80055CD0000B0CC000066CD00007FCD0000E4
:1047B80094CD0000AFCD000010CD0000F0B56A4BDD
:1047C8000E465F6800258BB0C7F3080485F311888F
:1047D800BFF36F8F02F07F43B3F17F4F12D102F026
:1047E8000C03082B10D1614B1B6813F007031DD075
:1047F8005F49604B6048C91AC908890141F0010145
:1048080003F0E0FD2E4603E0130701D40646012518
:1048180000238DF80730E31E092B00F28880DFE8BB
:1048280003F0076F736B8686868686771D46E9E7F1
:104838004E4F3B68590709D04D494E4B4F48C91A4E
:10484800C908890141F0010103F0BCFD0024464B71
:104858008DF80740DA6A920727D53B685F0701D1D0
:10486800002409E04249434B4548C91AC90889014F
:1048780041F0010103F0A6FD9DF807309BB9202205
:10488800314602A805F0D6F9099B002D67D0C3F37D
:10489800080222B96FEA53236FEA4323099320469B
:1048A80002A9FFF7E1FC0BB0F0BDDB6A5800D7D5D1
:1048B8003B68590709D02E492E4B3248C91AC908F6
:1048C800890141F0010103F07DFD2F4B1B782BB1CD
:1048D80001200DF10701FFF725FE0FE02B4B1B7898
:1048E8002BB101200DF10701FFF7BAFE06E0284BB6
:1048F8001B889BB2002BB3D0FFF76CFD0446BBE7C7
:1049080000200DF10701E6E700200DF10701EBE7B4
:10491800164B1B685A07A3D0164B15491D48C91AD0
:10492800C908890141F0010103F04CFD98E70F4BDC
:104938001B685B0794D00F4A0D4B17489B1ADB087E
:1049480017F4F87F4FEA8313144943F0010318BFA3
:104958000146A4F11002124803F055FD80E723F444
:10496800FF7323F0010399E700ED00E0AC0100209C
:10497800A4A9000074A90000C7CD0000F2CD000072
:1049880009CE00002ACE000028ED00E029ED00E065
:104998002AED00E049CE000094CE00007FCE000052
:1049A800ADCE0000024A536943F0100353617047CB
:1049B80000ED00E0044B9968586A884203D0034927
:1049C8004FF080520A607047A00E002004ED00E00E
:1049D800BFF34F8F0549064BCA6802F4E0621343E0
:1049E800CB60BFF34F8F00BFFDE700BF00ED00E0D5
:1049F8000400FA05002320210348C2180133412B83
:104A080082F80013F9D1704700E100E038B5044698
:104A18004FF02003EFF3118583F31188BFF36F8FF5
:104A280002F07EF9204602F089FB0A4B9B68A342FC
:104A38000BD1094B5A68C2F3080212B92846FFF78E
:104A480043FB5A6842F080525A602846BDE8384015
:104A580005F0B8BBA00E002000ED00E010B50E4B2D
:104A680088B002930D4B0E4C03930E4B0E4A0493E1
:104A780002AB019301A82346012100F04FF900235E
:104A880007930A4B0121E41A05A80593069400F040
:104A98004FF908B010BD00BF000000200000000062
:104AA800000001200600010000000020B8020020DC
:104AB80010B50B680C7A23F01F0204F01F031A4389
:104AC800CB68640923F01F03044943EA440343F015
:104AD80001038860CA600B6110BD00BF90ED00E063
:104AE80008B5094B01461B685B0709D0074A084B04
:104AF8000848D21AD208920142F0010203F06FFC72
:104B08006FF0150008BD00BFA80100209CA9000097
:104B180074A90000C4CE00002DE9F04F074688466E
:104B2800144600265B4D85B0464532DA57F82630E4
:104B3800D3F80490B9F1000F5AD0B9F11F0F22D958
:104B480019F01F0F1FD1D3F800A01AF01F0F1AD1A8
:104B5800504604F05CFF834609EB0A00013804F074
:104B680056FF834525D06FF0150B4B4B1B685B0731
:104B78000DD04A4A4A4B5946D21AD208920149489E
:104B880042F0010212E0444B1B685A0705D16FF04E
:104B98001504204605B0BDE8F08F31463F4A404B2A
:104BA8004148D21AD208920142F0010203F017FCE0
:104BB800EDE71BF1160FD8D0631E5B45D5DBC5F8B2
:104BC80008B0E868C5F808B02B6957F8261020F037
:104BD8001F0043F01F0AD1E900321A44984202F13B
:104BE800FF3918D1CA4505D15FFA8BF004F0EEFE03
:104BF800013699E7C5F808B0EB6822F01F0203F008
:104C08001F031A43EA60E0B204F0E0FE10F1160F49
:104C1800BDD0441CECE7C5F808B02A69013B23F075
:104C28001F0302F01F021343CA45E0B22B61EBD009
:104C380004F0CCFE10F1160FA9D0C5F808B0EA6848
:104C48009DF808300AF1FF3A62F304038DF8083042
:104C58002B699DF808205B0863F3471257F8263044
:104C68008DF80820D3E900130B44009323F01F03A9
:104C7800441C5344A3EB0903E0B223F01F030F289D
:104C8800039302D9FFF72CFFC0E76946FFF710FF2F
:104C9800BFE700BF90ED00E0A80100209CA900003C
:104CA80074A900000DCF0000EACE00000522034BD6
:104CB8005A60BFF34F8FBFF36F8F704790ED00E0DE
:104CC800BFF35F8F0022014B5A60704790ED00E000
:104CD80038B50E4C2568102D14D8FFF7F1FF0020C9
:104CE8000B4B0C4A1A63854205D10B4B1D70FFF71D
:104CF800DDFF002038BD616801EB0011FFF7D8FE29
:104D08000130F0E74FF0FF30F4E700BFC8B2000011
:104D180090ED00E0AAFF4400F911002010B5034C03
:104D28002278FFF7F9FE207010BD00BFF9110020AE
:104D38002DE9F74F264D8A4606464FF00008AB4648
:104D4800244FD0451BDAD6F80490B9F1000F39D0BA
:104D580031680846019104F05AFE0199044609EBAE
:104D68000100013804F053FE84424FF014021A4B3C
:104D780008D06FF0150302FB08F84BF8083003B0B1
:104D8800BDE8F08F14F1160F2C60F8D01978A14205
:104D9800F5DD02FB08B0BC60BC60FC6800F10801EE
:104DA800007B64F30400087138690C79400860F3EB
:104DB80047140C71F96821F01F016960396921F005
:104DC8001F01296108F1010814350C36B9E700BF45
:104DD8001C0D002090ED00E0F91100202DE9F04FA6
:104DE8001E4600238946A1B003900293134613F888
:104DF800010B069358B1252800F081804946039B92
:104E08009847013040F04B844FF0FF3302930298EB
:104E180021B0BDE8F08F2B2D65D05CD8202D65D052
:104E2800232D66D0002DF2D0CDF81880DDF818803B
:104E3800A44818F8015B294604F0A5FE0028EAD129
:104E48002A2D63D156F8043B98F80050002B07939D
:104E5800BFBF5B42079301230D93069B03F1020832
:104E68002E2D78D198F800302A2B71D156F8044BA2
:104E780008F1010818F8015B294693482F4604F009
:104E880082FE00286AD0434613F8015B682F069318
:104E980007D1682D05D1482708F1020398F8015079
:104EA8000693782D08D8572D5CD8252D00F0F3836C
:104EB80000F2A280002DAAD049462520039B9847DE
:104EC8000130A1D049462846039B984701309BD022
:104ED800029B0233E5E32D2D0ED0302D089B08BF31
:104EE80001230893A0E7012309939DE701230C936D
:104EF8009AE74FF0010A97E701230D9394E70023FF
:104F08009A4608930C9309930D938FE7A5F1300304
:104F1800092B0790A4D80A22DDF8188018F8015B3D
:104F2800A5F13003092B9BD8079B02FB0355A5F17C
:104F38003003CDE90683EFE7904601FB0434303CAB
:104F4800424612F8013BA3F130000928F4D991E751
:104F580000240A21F4E74FF0FF348DE70746CDF827
:104F680018809EE7A5F15803202BA5D801A252F876
:104F780023F000BF03560000C14E0000C14E0000E0
:104F8800C14E0000C14E0000C14E0000C14E0000DD
:104F9800C14E0000C14E0000C14E0000C14E0000CD
:104FA800D5500000AB5100000D5000000D5000001E
:104FB8000D500000C14E0000AB510000C14E000072
:104FC800C14E0000C14E0000C14E00008F550000C8
:104FD80003560000B9550000C14E0000C14E000044
:104FE800DB550000C14E000003560000C14E000012
:104FF800C14E000003560000A5F14503DBB2022BA9
:105008003FF65AAF073626F007031946F1E80223A0
:10501800D80240EA5250D60220F00040002A0191FE
:105028000496C3F30A51059073F10003DDE90467A0
:10503800CDE9146780F2E5802D238DF864300DF1F9
:10504800650740F2FF73994240F0F680DDE90412EB
:105058000A43A5F1410507F1030340F0E280192D49
:1050680000F2D98049223A704E227A7046220024F2
:10507800A246A34619AEBA70FC709B1B099A002A77
:1050880040F07E820C9A002A40F07A829DF8648073
:10509800A8F12D02D2F1000848EB02080BEB0A0632
:1050A80033441E1920AB434413F81C3C303B092BF6
:1050B80000F2FF82089B002B00F0FE82079B19AFCD
:1050C8009B1B14E030CF000036CF00004FF00008E3
:1050D80032464446012652F8043B01928DF864306A
:1050E80019AF04EB08030024A246A3469B1B23EA3E
:1050F800E3739A190892079A9919551A0D9A12B9D1
:10510800002D00F3EE8207EB0802BA4240F0EB8272
:10511800013B80F0F682A6EB0806BBF1000F10D029
:10512800387807EB0608A0F13003092BA8EB07062F
:1051380040F2F282D846B8F1010880F0F682A6EB78
:105148000B06BAF1000F16D007EB060817F801BBDB
:1051580049465846039B984701303FF455AEBBF18A
:105168002E0FA8EB0706F1D1D046B8F1000F00F3D7
:10517800E582A6EB0A0694B1387807EB0608A0F199
:105188003003092BA8EB070640F2E3822E2800F033
:10519800E082A046B8F1000F00F3E482361B3E44DB
:1051A800F3E23568331D002D01931CDA2D23694283
:1051B8008DF864300DF1650630460A2204F088FD4A
:1051C800099B064419A8361A002B40F06D820C9BE7
:1051D800002B40F069824FEAD578002C80DA002451
:1051E800A246A34666E7099B23B12B2329468DF8DF
:1051F8006430DFE70C9B0BB12023F7E7294619AE93
:10520800DAE7099B0BB12B2317E70C9B0BB1202383
:1052180013E719AF15E769223A706E227A70662291
:1052280025E7192D99BF4E2241216E22612194BF95
:105238003A703A7079701AE7049B05980B430E93FD
:10524800CB170343462D0F9308BF6625DDE90E23D0
:10525800134300F00781002900F09F800026159B6A
:10526800A1F2FE3843F00043159318F1020FC0F283
:10527800A880B8F1000F00F3D48014A808F1010841
:1052880004F04AFDB8F1040FF7D1002C05F0DF0354
:10529800B8BF0624472B40F0EE80F11C02DBB44275
:1052A80080F2E380023DEDB2002C00F0EA80013C80
:1052B800BAF1000F40F0E580002CD4BF4FF0000891
:1052C8004FF00108662D40F0DE8014EB060B4FF01E
:1052D800660500F1DB80BBF1100FA8BF4FF0100B83
:1052E8001023002213934FF00063CDE91623BBF17E
:1052F800010B80F0CE80149B169A17999B18159A6B
:1053080041EB0202CDE9143202F0704310930023FE
:105318001193DDE91023134306D014A804F00DFD02
:1053280014A804F0F9FC0136662D40F0CF80002E59
:1053380040F3B680139B002B07DD13A914A804F0D3
:1053480024FD013E07F8010BF4D1B3463B46002685
:10535800BAF1000F01D1002C15DD2E2203F8012B24
:10536800002E00F0AE80002C40F3AD80C6F1000A9C
:10537800A245A8BFA246A4EB0A04002C03DD139A99
:10538800002A00F39480B8F1000F40F0B4800022A6
:1053980019AE1A709B1B71E60139049BDB18049344
:1053A800059B5B410593DDE90423002A73F10003A3
:1053B800F2DADDE90423CDE914234FE714A804F059
:1053C800ABFCDDE9142C0023CDF828C00B93DDE9F4
:1053D8000A01002908BFB0F1333F08F10108EDD2F6
:1053E80005204FF0000EA2FB002300FB0C33CDE993
:1053F8001423013E00214FF0000C6FF0004B8C4548
:1054080008BF9B4506D2BEF1000F3FF42EAFCDE991
:1054180014232AE792184FF0010E5B4108F1FF3878
:10542800E8E714A804F089FCDDE914104FF0000E39
:1054380008F1FF38013600234FF0000C6FF0004BE5
:105448009C4508BF834506D2BEF1000F3FF411AF5B
:10545800CDE914100DE749184FF0010E404108F14D
:10546800FF38E8E70026B04607E7A41BBAF1000FAB
:1054780004D1662520E74FF0000823E74FF0000825
:1054880023E74FF0000804F1010B24E74FF0000B6D
:1054980026E716A804F051FC16A804F03DFC26E700
:1054A8003B4630224FF0000B03F8012B50E713A9BD
:1054B80014A80A9304F069FC0A9B013C03F8010B49
:1054C8005BE7B24659E74FF0000A5CE713A914A856
:1054D80004F05BFC3028387018BF06F1FF36BAF1CB
:1054E800000F38D1002C36DC7B1CB8F1000F44D0FB
:1054F8004FF0000BDA46194613F8012D302AFAD07E
:105508002E2A18BF0B46002405F0DF02452A7FF437
:105518003EAF002EB4BF2D222B221946B8BF7642CB
:10552800632E01F8025B5A7008DD642096FBF0F2E6
:1055380000FB126602F13005D91C9D700A2096FB0B
:10554800F0F20B4600FB126602F13005303603F824
:10555800025B4E701BE72E22BB1C7A70002CC4DD48
:10556800139A002AC1DD13A914A80A9304F00DFCAC
:105578000A9B013C03F8010BF0E7C346C246C3E7A8
:105588004FF001088AE5324652F8043B682F019231
:1055980006D06C2F09D0482F07D1029A1A7001E063
:1055A800029A1A80019E069A20E4029A1A60F9E784
:1055B80047F63003ADF86430334653F8041B102225
:1055C8000DF16600019304F083FB4FF00208861C7E
:1055D80003E63346002CB8BF6FF00044002653F8AA
:1055E800047B0193B44203D126460024A04678E503
:1055F800BB5D002B5BD00136F4E7331D6F2D31689E
:10560800019319D1BAF1000F08D030238DF8643016
:1056180079B9884601268DF86510DEE519AD28466A
:10562800082204F055FB19AEAD1B2E184FF00008E8
:10563800D3E50DF16505F2E7752D05D10A2219A804
:1056480004F046FB0646F1E7BAF1000F11D047F621
:1056580030030DF16607ADF864301022384604F0C7
:1056680037FB582D07D019AEBF1B3E184FEA4A0822
:10567800B3E519AFF1E719AA12F8013BA3F16101EB
:10568800192903D8203B02F8013CF5E712F8013C40
:10569800002BF1D1E7E749462846FFF7B0BB029B4C
:1056A8000133CDE901637DE74FF0010895E51C461C
:1056B8009CE7002319AF1CE5089B19AF19E509936E
:1056C8004946039B2020079298470130079A099B77
:1056D8003FF49AAB013AF2D2029929440291154655
:1056E80011E52A46F6E709934946039B17F8010B8B
:1056F800079298470130079A099B7FF406ADFFF798
:1057080083BB07934946039B302098470130079B8A
:105718007FF4FEACFFF778BB4946039B98470130FE
:105728003FF472AB17F8010FFDE449463020039BA4
:10573800984701307FF4FFACFFF766BB494630203D
:10574800039B9847013008F1FF387FF40EADFFF74F
:105758005BBB4946039B984701303FF455AB17F8AC
:10576800010F0CE549463020039B9847013008F1AA
:10577800FF387FF40FADFFF747BB494617F8010B19
:10578800039B984701303FF43FABF31B002BF4DC3D
:10579800029B089A002D134402937FF703AF2C460F
:1057A80006E049462020039B984701303FF42CAB84
:1057B800013CF6D2029B2B440293F3E6014B18609E
:1057C800704700BF9C0000200EB40FB56FF0004179
:1057D80005AB53F8042B02900391064802A90193E4
:1057E800FFF7FCFA0022029B1A7004B05DF804EB84
:1057F80003B07047C79D00002DE9F347D0E9006763
:10580800002E77F100038A4680F2A88000236348BF
:10581800634A301847F1FF31FAF792FC614B0446AE
:1058280003FB00660D4624220021504604F02DFAA1
:105838006FF003024FF0FF33944275EB03034FF010
:1058480007024FF00003C0F28E80201D45F10001D1
:10585800FAF776FC544BCAF8182014EB03084FF0FB
:10586800000345EB0309B8F1000F79F1000380F25A
:105878008180002100234D484D4A201845EB010145
:10588800FAF75EFC48F6AC6240F2B455494B4FF467
:10589800C87C03FB0088B8FBF2F2B8FBF5F342447E
:1058A800D21A454B0F46B8FBF3F3D21A40F26D13E8
:1058B8004FF0640EB2FBF3F4A0FB0C01B2FBF5F55C
:1058C8000CFB0711B4FBFEF7001941F10001CDE90B
:1058D800000199217D1BA84403FB148303EB830C6F
:1058E8000CF1020CBCFBF1F54FF0050969430231DC
:1058F800B1FBF9F103F10108A8EB010140F2F958F5
:10590800C44594BF4FF0030C6FF0080C0098654431
:10591800A0F26C70022D98BF0130013DB3F5997F5C
:10592800CAE90315CAF8140029D3A3F599734FF4EB
:105938006162CAF81C30B6FBF2F302FB13663C2224
:10594800CAF80830B6FBF2F3504602FB1366CAF8F1
:105958000430CAF8006002B0BDE8F0870023304682
:1059680039460F4A58E7601D45F10001FAF7E8FB90
:1059780006326FE70023404649460D4A80E7A107F3
:1059880002D10EFB17443CB9B2F5B67F8CBF00229A
:1059980001223B331344CAE70122FAE781AEFEFF36
:1059A8008051010080AEFEFF6CFA0A00BCBF0800FF
:1059B800B13A02004FC5FDFFB03A020001282DE9B7
:1059C800F8430C4609D004283ED000F0A3FC162367
:1059D80003604FF0FF30BDE8F8831D4B9D68D3E9A5
:1059E800006704F02BFD4FF47A730A46A0FB03010D
:1059F80003FB02114FEAD03848EA41484FEAD1394F
:105A08004FF47A72002340464946FAF7E9FB361804
:105A180047EBE0774FF47A72002340464946C4E9E1
:105A28000067FAF7DDFB0B4B03FB02520A4BA2603F
:105A38009A4207D9711C47F10003C4E90013074BC8
:105A48001344A3600020C6E7002500260027C8E706
:105A5800E802002040420F00FFC99A3B003665C4A7
:105A680008B5094B1A786AB901210D20197005216A
:105A7800FEF78CFB0D20FEF779FB4FF00042034B3D
:105A8800C3F80423002008BDFA11002000D00050FC
:105A9800294BF0B546682948134083423DD00DD8BC
:105AA800062B15D005D89BB1022B38D06FF0150006
:105AB80032E0B3F5801FF9D1012309E02048834281
:105AC8002FD0B3F5A00F2ED0B3F5800FEED102235F
